:020000021000EC
:1080000000400020C5FB010001FC010003FC010051
:108010000000000000000000000000000000000060
:1080200000000000000000000000000005FC01004E
:10803000000000000000000007FC010009FC010036
:108040000BFC010085B00100210202000BFC0100C5
:108050000BFC0100000000003DFC01000BFC0100D6
:108060000BFC010019040200A90002000BFC010036
:108070000BFC01000BFC01000BFC01000BFC0100E0
:108080000BFC01000BFC01000BFC01000BFC0100D0
:108090000BFC01004DF60100B1F901000BFC0100E1
:1080A0000BFC01000BFC01000000000000000000C0
:1080B00000000000000000000000000000000000C0
:1080C000054B0648033310B51B1A062B03D9044B86
:1080D000002B00D0984710BDB0200020B020002019
:1080E000000000000648074910B5091A8910CB0F97
:1080F0005918491003D0044B002B00D0984710BDED
:10810000B0200020B02000200000000010B5074C77
:108110002378002B09D1FFF7D3FF054B002B02D0AA
:10812000044800E000BF0123237010BDB8200020E8
:108130000000000054AB0200094B10B5002B03D027
:108140000849094800E000BF08480368002B02D135
:10815000FFF7C8FF10BD064B002BF9D09847F7E793
:1081600000000000BC20002054AB0200B020002022
:1081700000000000164B002B00D1144B9D464022FE
:1081800092029A1A924600218B460F461348144ACF
:10819000121A11F047FB0F4B002B00D098470E4BE3
:1081A000002B00D098470020002104000D000D484E
:1081B000002802D00C4800E000BF0CF02DFD20008C
:1081C000290011F02CF80CF011FDC0460000080049
:1081D000004000200000000000000000B02000204F
:1081E00070290020000000000000000030B5174D8D
:1081F00085B02C68002C26D1012368462B6011F035
:10820000B8F8684611F085F82B68114A5A432300E4
:108210005209934204D0C046C046C0460133F8E735
:10822000684611F08DF8684611F094F8040068462D
:1082300011F090F80100E00F0419054B6410E018EC
:1082400008F080FA286005B030BDC046D820002074
:1082500000E2040070B5060001240A4D28000DF06C
:10826000D5FAA0420CD3210028000DF0FEFA0368D5
:10827000B34203D1210028000DF0D0FA0134ECE71D
:10828000300070BDD420002070B50400012111F031
:1082900089F9236962681A60FA23194A5B00116838
:1082A00015004B4300215B09994204D0C046C046EB
:1082B000C0460131F8E70021200011F073F95A227D
:1082C000002329684A435209934204D0C046C0465D
:1082D000C0460133F8E7636960681B680022034009
:1082E00058425841CD235B004B43C0B25B099A42D0
:1082F00004D0C046C046C0460132F8E770BDC04653
:10830000D820002070B504000D00012111F04AF9B9
:10831000236962681A6003221A4B196800234A43D2
:108320005209934204D0C046C046C0460133F8E724
:108330003723002D0CD0E26860684B4310600022A8
:108340005B099A421CD0C046C046C0460132F8E7DD
:108350004B435A09954204D0C046C046C046013539
:10836000F8E7E36862681A600A22130000224B43B0
:108370005B099A4204D0C046C046C0460132F8E7C5
:1083800070BDC046D820002070B50400012111F056
:1083900009F9236962681A600323184A11681500F5
:1083A0004B4300215B09994204D0C046C046C046F9
:1083B0000131F8E70021200011F0F4F80A2200232F
:1083C00029684A435209934204D0C046C046C04679
:1083D0000133F8E7636960681B6800221840431E98
:1083E00098412D234B43C0B25B099A4204D0C0464A
:1083F000C046C0460132F8E770BDC046D820002014
:10840000F0B58BB00190059106920021082208A8D2
:1084100011F008FA002301980493FFF735FF039049
:10842000002802D10023039377E00826059C012150
:1084300001982140013EFFF765FF6408002EF6D148
:10844000012534002F000296412F01D101244CE078
:108450000198FFF799FF07900198FFF795FF079B99
:10846000002B02D00028DDD10AE0002805D008AB9F
:108470001B5DAB4308AA135514E0049B9F4203D134
:1084800008AB1B5D2B43F5E7049B9F4205DD08AB62
:108490001B5D08AAAB43135503E008AB1B5D2B42E1
:1084A00000D1029708AB195D019829404B1E9941F4
:1084B000C9B2FFF727FF6BB26D000137EDB2002B99
:1084C000C2DA0134E4B20125BEE7002301210268CB
:1084D000343208A8D55C185C854200D000210133F5
:1084E000082BF6D1002913D1013421000C480DF0DE
:1084F000BCF90028E9D108A80DF02CFA002891D188
:1085000008AB9B5D069A93550136082EF8D104E01E
:10851000029B002B00D07EE784E703980BB0F0BDF0
:10852000D4200020F8B504000E00012A02D10DF07D
:10853000E6F917E00DF0CEF9230034331B78282B31
:1085400001D0222B0ED1230040331A7860235E2500
:10855000134008D06D19202B05D0402B02D178256F
:10856000FF3500E01C4D442120000DF091F92778E3
:10857000002F28D06778002F15D0A278236A002A10
:1085800001D0A26A00E0E26A1360280010F0FDFF4B
:10859000A578236A002D02D1A26A136019E0E26A6D
:1085A0000025136015E0261D0121300010F0FAFFB0
:1085B0002369A26828001A6010F0E7FF3900300034
:1085C00010F0F0FF05E0002E03D0280010F0DDFFD2
:1085D0003D002800F8BDC046EE020000F7B50600D9
:1085E00001910DF0E0F930000DF0CBF900285ED1DB
:1085F00033003D331878013B1B780002C018030498
:1086000001D52C4B58400AF083FD0023002209F0CD
:1086100039F90AF013FE330034331B78041C282B7D
:1086200001D0222B05D1F621201C890508F0E8FD98
:108630002DE033004333187809F0E6F8FC21071CDD
:108640008905201C08F0DCFD0AF0A4FD0BF094F86D
:108650004236040030780D0009F0D6F8011C381CB1
:1086600008F0E2FE391C08F001FC0AF093FD00223C
:1086700006000F00104B200029000AF0BFF902008D
:108680000B003000390009F0FDF80AF0D7FD202377
:10869000019A9A43462A0BD1084908F0B1FD0849CE
:1086A00008F0E4FB8421C90508F06AFA00E00548F7
:1086B000FEBDC0460000FFFF0000D03F000010419B
:1086C0000000A04000007AC4F7B504000F00061DAA
:1086D0001500002118223000019311F0A3F8390091
:1086E000270030001C3710F0C1FE1822002138008E
:1086F00011F098F82900380010F0CFFE6B461B7976
:108700000135A37022006B1E9D412300002165707E
:108710003C334532197001339342FBD1FFF766FDBC
:108720002100300034310DF026F9002803D10A4829
:1087300010F073FE0EE00021300010F033FF210036
:1087400006480DF04EF8002120000DF040F90123FD
:10875000584020702000FEBDD0A40200D42000208C
:1087600010B5054C20000DF039F8044A04492000EA
:1087700010F0EEFF10BDC046D420002000200020E5
:108780005758020010B50400034B036040300DF051
:1087900039FB200010BDC046109B020070B50D4C87
:1087A000200000F037F9250001220B4C11002000B9
:1087B000FFF7B8FE63212000FFF710FF08F0BAFFB3
:1087C00006490200281D10F0F6FCFE20800507F087
:1087D000EDF9E9E7DC200020D4240020EDA402001C
:1087E00070B50C4C200000F055F80B4D0B492A00D9
:1087F000200010F0ADFF0122094C0023524203215A
:108800002000FFF761FF2A000649200010F0A0FFBA
:1088100070BDC046DC200020002000202988010017
:10882000D424002055820100EB23194A9B0010B587
:10883000C2501C330400C0180DF0E4FAF1239B0071
:10884000E0180DF0DFFA84239B00E01801F074FAC1
:108850002000C530FF3000F0A3FF20008D30FF3036
:1088600001F0C0F920006530FF3001F0BBF92000B5
:10887000EC3001F023FF2000D03002F077FA200026
:10888000643007F0EBF8201DFFF77CFF200010BDDF
:108890000C9D02001423F0B5040095B0192200933A
:1088A0001821043002F040FC230027006433B43761
:1088B00013211800119307F0DDF838000EF048FA84
:1088C0002300B83300221E21180010930DF0FDFE86
:1088D0002000D03002F06AFA2300EC334A4A062125
:1088E0001800129301F00EFF2000002601236530CE
:1088F0001A0000961121FF3001F0F0F920008D30B0
:108900000096012302221A21FF3001F0E7F9250029
:108910002000C535B530FF351A2302220121FF3072
:1089200002F004FB109904233A22280000F0C8FF4B
:1089300084239B00E31813930523019318330093BA
:108940002A003B001099139801F010FC96239B001D
:10895000E0182A00129B139901F0E6FD99239B0071
:10896000E01839001C2202F00DFD9F239B00E01847
:1089700019230F93013B0E93013B0D93013B0C9385
:10898000013B0B93013B0A93013B0993013B089385
:10899000013B0793013B0693013B0593013B049385
:1089A000013B0393013B0293013B0193013B0822EE
:1089B00000930721013B0DF090FEEB239B00E01894
:1089C000390003F097F8F3239B00E0181D2102F013
:1089D000F3FAFD239B00E65011982670032110F056
:1089E000B9FB23002200200008499C33A0321C6000
:1089F00011605660064A80305A610221012207F058
:108A0000CFF9200015B0F0BD189B0200535A0200A8
:108A10003F5A02000123F0B5067889B004001E40D9
:108A200000D0B0E0FD20800500F0E6FC2300D0334C
:108A30001800029300F0B6FA00F0A6F9282000F022
:108A400013FD050010300DF06CFA504B6E802B803A
:108A5000182000F009FD07004D4B10C703901022AD
:108A6000310038000693079610F0DCFE082206A9B4
:108A7000380010F0B9FE474B039A290053611223C6
:108A8000AA60EE60AB802E626E62029802F0FAF885
:108A9000002805D028000DF06BF9280000F006FD35
:108AA0000122237864201343237000F099FB0025F2
:108AB00027006537FF3738000DF0E0FB00283DD078
:108AC00020008D30FF300DF0D9FB002836D0092D65
:108AD00034DC6420013500F083FB0A2DE8D1FD264B
:108AE0002D492E48B60000F05BFCA359002B1CD189
:108AF00000F062F8010004A800F0C6FD05A80DF022
:108B00001AF8EB200123800005AA04A9009320187D
:108B1000029B03F041F805A80DF074F904A80DF0CC
:108B200071F9ED239B00E358A351EB2321009B0037
:108B30003A00EC31E01803F0CFF9B9E7FD26164909
:108B40001648B60000F02CFCA559002D1BD100F0F2
:108B500033F8010004A800F097FD05A80CF0EBFF26
:108B6000EB239B00E01805AA029B04A9009503F0E3
:108B700013F805A80DF046F904A80DF043F9ED230C
:108B80009B00E358A35109B0F0BDC046FD030000AF
:108B9000C75A0200875A020000200020001C002053
:108BA000BFF34F8F024A034BDA60BFF34F8FFEE7EC
:108BB0000400FA0500ED00E0F0B58DB005AF192214
:108BC0001549380010F010FE0022144B05245A718C
:108BD00080225205566E01222500019402920393D1
:108BE0000199300007F0AAFD0800029907F020FD66
:108BF000019B03996B430193029B361A6B430293CB
:108C0000631E2C1B6C433C19225C1C1ECA54E7D10A
:108C100008000DB0F0BDC04630A502009E2800201F
:108C2000F0B595B01822002106000EA810F0FAFD4C
:108C300013210EA810F01AFC03210EA810F0ACFCB2
:108C400001224A4B00921B68002B01D0DBB200933B
:108C50000123474A002109A807F012FA454B9E421A
:108C600000D9002672B6444B1022002105A81D68C9
:108C700010F0D8FD414B642130000593052407F026
:108C800061FD60435030281806900A21300007F03B
:108C900059FD0A2107F03CFE6143503169180791E4
:108CA00030000A2107F034FE4C43210050316C188B
:108CB000802608940024B601009B002B3CD004AD14
:108CC0000027032C02D180260024B6016B682C4AB1
:108CD000029363000133D318002201921021581E21
:108CE00000780141039119788C4660460299095C2D
:108CF0000398014204D00120904001990143019161
:108D000001320633092AE9D1019B2A68D9431D4B58
:108D100009011940029B934203D1312F01DC00214C
:108D200000E0314309A810F0F2FCFA23139A0F99DE
:108D3000DB001068014201D1FFF732FF013B002B3D
:108D4000F7D1FA23013401377600E4B25B009F4289
:108D5000B7D1043508ABAB42B2D1044B1B68002B32
:108D6000AAD0009B013BDBB20093A5E71C250020A5
:108D7000F0FF0000E7030000042000207FA50200B0
:108D800049A50200F01F0000F8B50023144C236031
:108D90000CF0F2FE2500002808D0042120000CF081
:108DA000E7FE00281BD00F4B236018E00122A1270B
:108DB00004210D4B0D4E1A602368FF000B4A7060B2
:108DC000944662465268084C002AFAD0E2591B02C7
:108DD000013913430029F1D12B6001236360F8BDF1
:108DE00020250020ED5EBC0B00D00040FCD00040F0
:108DF000F0B585B01F000AAB1B8806000291150074
:108E00000393002F1BD0282000F02EFB6B4604009C
:108E10001989039BAAB200933B000CF092FF3368C0
:108E200021005B683000984700280BD0002C08D048
:108E300020000CF09DFF200000F038FB01E002480C
:108E400000E0024805B0F0BD17FCFFFF16FCFFFF75
:108E50000B4B70B51C68002C11D0656D00F0D0FB79
:108E6000A36C002903D1834201D92C00F3E7200031
:108E70000CF0B5FE034920000CF09EFEF5E770BD36
:108E80004825002050250020F0B5040093B007933A
:108E9000230C0293294B04901C68294B05911E68F2
:108EA000069285B20027002E46D0002C30D0636D8C
:108EB00024480393A36C9AB21B0C99B2854216D135
:108EC0002148824213D1002B04D0029B994201D049
:108ED000039CEAE7002F01D00127F9E720000CF0FE
:108EE0007EFE1A4920000CF067FE0137F0E7002AE9
:108EF00001D09542ECD1002B02D0029B9942E7D1E0
:108F000020000CF06CFE114920000CF055FEDFE74C
:108F10000F4BEB18012B0FD91023029A0093290055
:108F20000C4B08A80CF00DFF336808A99B683000B3
:108F3000984708A80CF01CFF13B0F0BD4425002092
:108F400054250020FE030000FF03000050250020F0
:108F500002FCFFFF898E010010B572B60B4B1C6836
:108F6000002C03D020000CF03AFE08E062B65C2032
:108F700000F07AFA5C220021040010F053FC002378
:108F8000E364034B2000E36310BDC04624250020AA
:108F900000400020024B1878012318407047C0465B
:108FA000A4280020F7B50600FFF7F4FF051E33D113
:108FB0001A4C2660FFF7D0FF194B1A4918600CF0C5
:108FC000FBFDFFF7C9FF184B1860184B4363184BA4
:108FD0008363206800280ED0C027164E2A00330075
:108FE00015490097FFF704FF009733002A00134943
:108FF0002068FFF7FDFE0C2000F036FA0023838086
:1090000083710F4B03600F4B836000F011FB012154
:109010000D4A13780B431370F7BDC046542500204A
:10902000282500205025002058250020FC3F002046
:10903000A55C0200898E0100FF030000FE03000012
:10904000389B0200518E0100A4280020F7B50600CD
:109050000D0017000193002801D1002015E0002920
:10906000FBD0FFF779FF041EF7D0084B019A43634A
:10907000066045608760064B002A00D0054B200043
:10908000A36305490CF098FD2000FEBDFC3F0020C5
:109090006F5C02008D5C020050250020024B1868B6
:1090A000434258417047C04650250020002310B568
:1090B00004499C006258002A01D00133F9E760504E
:1090C000100010BD2C250020002310B5044A990083
:1090D0008C58844201D00133F9E70020885010BD3C
:1090E0002C25002010B50024074BE058002802D0A2
:1090F00003685B6898470434182CF5D1034B1B6850
:10910000002B00D120BF10BD2C25002050250020B1
:10911000F8B5FFF73FFF002855D02B4E34683500D7
:10912000E36CDA0717D502252B43E3640423274FAA
:109130003868C26C1343C364636BC3630CF075FD82
:109140003868416C03F0C9FA3068C36C2B423AD0DE
:1091500003F0FDFA37E01E4F1E4E3A68002A01D197
:10916000326808E0216DB94205D1616D002900D156
:109170001100296000E02A602A6831688A4208D11B
:109180001B0706D52C60FFF7ADFF3B68002BFAD01C
:109190002B6029688C4216D03368994204D10E4B5B
:1091A0004B630E4B8B6305E09C4203D100224B6C5A
:1091B000100006E020000CF038FD20002968626CE9
:1091C0004B6C03F049FAF8BD282500204C250020FF
:1091D0005025002058250020FC3F0020A55C0200FF
:1091E00070B50500FFF7D6FE002803D1280010F067
:1091F000CCF918E00C4B1C68E36CDB0706D5FFF7D5
:10920000ABFE0A4B1860002800D0040000F0F8F90B
:109210002818A06420000CF0E2FC054920000CF0A6
:10922000CBFCFFF775FF70BD282500204C250020E2
:1092300048250020F0B51E4B85B01C681D4B06006C
:109240001A680F000393002A03D0FFF7A3FE00283B
:1092500001D119482AE0E36CDB070ED5FFF77CFE4D
:10926000164B051E186008D00CF0B9FC14492800F4
:109270000CF0A2FC2C00FFF74BFF3B043343A3642C
:1092800020000CF0ACFC20000E490CF095FC0E4BBD
:109290000020F318012B09D9C023039800933A004A
:1092A0000A4B31000068FFF7A3FD002005B0F0BDB8
:1092B000282500205425002016FCFFFF4C25002007
:1092C000502500204425002002FCFFFF898E01006C
:1092D00010B5FFF75FFE002809D0054C20680CF0A0
:1092E0007EFC044920680CF067FCFFF711FF10BDFD
:1092F0002825002024250020F7B507000D000028B0
:109300002DD0FFF747FE00282BD00724164E3068DB
:10931000C36C1C4006D0154A290038000CF076FCBE
:1093200000241FE003F0FBF902213268D36C1940DE
:10933000019103D003218B43D36413E00124234321
:10934000D3642800B8473268D36C1900A143D164B4
:10935000019C5B0706D528000CF090FC02E0044C51
:1093600000E0044C2000FEBD282500207D5C0200AA
:1093700017FCFFFF16FCFFFF020010B5014B12CBDC
:1093800012C210BD5C250020034A044B12681A600B
:109390007E225A607047C046042000205C250020D1
:1093A00070B5114D02002B78022B19D0814219D9CA
:1093B0000B1A072B16D90800032310431840041E6C
:1093C00010D172B62B780948DB001A50C0184160E2
:1093D0000CF06EFC2B7801332B7062B6200002E09B
:1093E000034800E0034870BDA52800206425002044
:1093F00013FCFFFF17FCFFFF70B50021041C07F0F2
:10940000A9FA002823D1FE21201C890507F0ACFA17
:1094100000281CD104300BF025FC05000F48401B30
:1094200008F0F2F9211C07F0EBFE07F0D1FA032354
:109430009843040028000BF01FFC20000BF012FCE6
:10944000002806D1203C002CF7D1054805E005484E
:1094500003E00119FFF7A4FF002070BD00380020D1
:1094600013FCFFFF17FCFFFF70B5050000240D4B38
:109470001B789C4209DA0C49E300C91828000CF05B
:109480001FFC00280AD10134F1E728000BF0EAFBA9
:10949000041E04D11420FFF7C3FB00E004002000E9
:1094A00070BDC046A52800206425002070B50028A6
:1094B00018D00D4B0D491C780023A34210DADA00B6
:1094C0005558A8420AD98A185268904206D2802379
:1094D000043802681B061343036003E00133ECE722
:1094E0000BF0CAFB70BDC046A528002064250020F3
:1094F00070B5051E15DD0C4B0C4E1A681C00002AB9
:1095000002D030680FF0D6FEFA21256000243068C2
:10951000074B89008361C46269430FF0D3FE2000CA
:1095200000E0044870BDC046A4250020742500203A
:10953000DD95010017FCFFFFF8B5114F06003D68EF
:10954000002D0AD13020FFF78FFF040006F000FB4A
:109550000C4BA5612360E5623C600B4D2B68002B32
:1095600009D11020FFF780FF04000FF002FF200058
:109570002C600FF0CEFE3000FFF7BAFFF8BDC046FA
:1095800074250020BCA00200A0250020014B186813
:109590007047C046A425002070B50D4C2368002BF1
:1095A00003D00C4B1B68002B02D10620FFF7C4FF31
:1095B00020680FF0CFFE02000749C3170D684E6800
:1095C0005219734120680A604B600FF0C9FE70BDEC
:1095D000A025002074250020B020002010B5FFF742
:1095E000DBFF0024054BE058002802D003681B680D
:1095F00098470434282CF5D110BDC04678250020AA
:1096000010B5FFF7C9FFFA22034B9200186859689A
:10961000002307F0BDF910BDB020002010B5FFF702
:10962000BBFF024B1868596810BDC046B02000202F
:109630000B4B10B51B680400002B03D0094B1B68B3
:10964000002B02D10620FFF777FF0023064A99007E
:109650008858002801D00133F9E78C5010BDC0466E
:10966000A02500207425002078250020002310B5B7
:10967000044A99008C58844201D00133F9E7002054
:10968000885010BD7825002010B50400002902D0B4
:109690000B78002B02D1034B236001E00CF0B9FBE7
:1096A000200010BD489B0200F8B505000E00140014
:1096B00000290AD00B78002B07D0002A05D008001B
:1096C00097B210F0EFF8874202D90B4B2B6010E0F5
:1096D000601DFFF7C9FE28600CF07BFC28682200A3
:1096E00047803100043010F07FF82B681C190023EC
:1096F00023712800F8BDC046489B0200014B03605F
:109700007047C046489B020010B50548054C2060D4
:109710000CF062FC044A0549200010F019F810BD55
:10972000489B0200A825002000200020055E0200C2
:10973000084B73B51C680500002C0AD00100266890
:1097400008310822684610F04FF80CCD316820002F
:10975000884773BDAC25002010B5054C01212000C1
:109760000CF02EFC034A044920000FF0F1FF10BD5D
:10977000B0250020002000207F5F02000388074AF8
:1097800010B50120934208D0834202D00020DB07AD
:1097900003D41E20FFF744FA002010BDFFFF000095
:1097A00010B50400034B08330360FFF78DFC200065
:1097B00010BDC046509B0200FA2370B52A4A418969
:1097C0009B0059431300383304001E00083A1D68FB
:1097D00018008D420BD2254B227B1D1D082A0BD869
:1097E000042A09D89D1C022A06D81D0004E0083B63
:1097F00006009342EBD1EEE7FA213068890006F0CB
:1098000017FF60812B78002223732A2120000CF09F
:1098100006FC002801D0164824E010222B2120004D
:109820000CF0FDFB0028F6D101222D2120000CF0C8
:10983000F6FB0028EFD101222E2120000CF0EFFBD7
:109840000028E8D16A780E2120000CF0E8FB0028FF
:10985000E1D1012233792A211A4320000CF0DFFBE9
:109860000028D8D170BDC046689B02005FA70200E7
:109870000EFCFFFF7FB515000F226A4404001E0096
:109880001170002D15D0002B13DD012301890093E9
:10989000006B01F071F9002801D007480AE0009040
:1098A000218933002A00206B01F01CF9002801D027
:1098B000F3E7024804B070BD0EFCFFFF17FCFFFF8A
:1098C000F7B5060000250193214B14360833040038
:1098D000036085808571C581058245820F000092F5
:1098E0002900182230000FF09DFF1C2130000FF0DE
:1098F000BDFD6B469B880222A3806B461B8821001E
:1099000023811423638123003833A57122732763D5
:109910003E311D705D700B7865879343F1321340C3
:109920002200A5870B702300483215705580013541
:10993000221DD5870833A21DD5872000DD87FFF7BC
:109940003BFF002802D1A3791D43A5712000FEBD75
:10995000509B020030B50425837987B004002B4268
:1099600004D1FFF7A3FBA3792B43A371A36AA269D8
:109970001B6800251A422AD106236A4601212000CD
:10998000FFF778FF002801D0124D20E06B4602213E
:109990006846595600781B79227B40B25BB251432E
:1099A0005343424389B2D200E281CA00228202229A
:1099B0009BB2DB006382A37920009343A3710CF078
:1099C0003CFB0123A1881A0002A80CF0B5FA28007C
:1099D00007B030BD0EFCFFFFF8B50400FFF7BAFF7B
:1099E0000E22A35E7C4F5B42BB4205DA23003E336E
:1099F0001B789B0700D5C6E02000FFF7ABFF0E22C7
:109A0000A35EC8225B4200255200934205DD23007D
:109A10003E331B789B0700D4B5E02000FFF79AFF88
:109A20001022A35E5B42BB4205DA23003E331B7863
:109A30005B0700D5B5E02000FFF78CFF1022A35E86
:109A4000C8225B425200934205DD23003E331B785F
:109A50005B0700D4A5E026002000FFF77BFF122261
:109A6000A35E4836BB4205DA23003E331B781B0752
:109A700000D5A3E02000FFF76DFF1223E25EC823AC
:109A80005B009A4205DD23003E331B781B0700D4A0
:109A900094E0002D19D03378032B16D80133DBB2B4
:109AA0003370012B04D1230000224A331A800CE0CA
:109AB000042B0AD1220001213E3213784A340B4391
:109AC0001370002323800B3384E03278002A1AD0ED
:109AD0002100270001254A310B883E3701339BB214
:109AE0000B803878AC46054008D01D2B0BD9634657
:109AF0009843002338700B80337004E0092B02D99F
:109B0000013A0D80327020000CF002FB334A07232B
:109B100090425FDD2000FFF71DFF0E23E25E304E16
:109B200052420323B24255DBC8252000FFF712FF43
:109B30000E23E25EAD0052420423AA424ADC20001A
:109B4000FFF708FF1023E25E02235242B24241DBDC
:109B50002000FFF7FFFE1023E25E01235242AA42DB
:109B600038DC2000FFF7F6FE1223E25E0523B24246
:109B700030DB2000FFF7EEFE1223E25E0623AA424E
:109B800028DC002326E00125210028003E310B7847
:109B90005A08904302000220AA40834313430B70EB
:109BA0003BE70125210028003E310B789A089043BD
:109BB00082000420834313430B704CE721000122F1
:109BC0003E310B78D80882430820D20083431343E8
:109BD0000B7060E71800F8BD70FEFFFFFF70020019
:109BE000E0FCFFFF10B50400034B08330360FFF7F0
:109BF0003DFD200010BDC046A89B020070B5C369A2
:109C0000C2681B688AB00400451D1A4250D0EB7F21
:109C1000002B01D0013BEB77EB7F082B0DD9012204
:109C2000A379134209D11343A371A188130006A895
:109C30000CF082F9FFF7E4FC2062EB7F012B26D8C1
:109C40000123A2791A4222D00025A188A5710222FF
:109C500002A80CF071F9A31DDE7F012E17D1FFF7CA
:109C6000CFFC2B00226A801A994100900191019B40
:109C7000A188AB4203D1174B009A9A4202D9012323
:109C8000042201E03300032206A80CF055F9032357
:109C9000A2791340012B1AD1FFF7B2FC0023226AEC
:109CA000801A9941994208D10B4B984205D80EE091
:109CB000EB7F0B2BB0D80133ADE70222A379A1884B
:109CC0001343A3710332012306A80CF035F90AB03F
:109CD00070BDC046E7030000DB050000F0B50700DB
:109CE00000250E0085B002930AAB1B78083703935A
:109CF000104B0400083303600192858085712900B0
:109D0000182238000FF08EFD039A310038000FF052
:109D1000B2FB6B466A469B88127AA380A31DE6714C
:109D2000DA77631D25622000DD77FFF781FC2000D4
:109D300005B0F0BDA89B020010B50400034B08332A
:109D40000360FFF7C1F9200010BDC046C09B0200B0
:109D50007FB515000F226A4404001E001170002D0B
:109D600015D0002B13DD012301890093C06B00F097
:109D700003FF002801D007480AE000902189330042
:109D80002A00E06B00F0AEFE002801D0F3E70248A5
:109D900004B070BD0EFCFFFF17FCFFFF002330B5C1
:109DA00085B003AC217001890093050001332200C6
:109DB000C06B00F0E1FE002801D00A480FE02070DF
:109DC00060702989009002232200E86B00F08AFE6F
:109DD0000028F2D1207863780002184300B205B061
:109DE00030BDC0460EFCFFFF13B56B46DC1D0023E3
:109DF000220023700133FFF7ABFF002801D1207848
:109E000000E0014816BDC0460EFCFFFFD0B50400BF
:109E10000CF05CFAE268A369981A09F079F9060077
:109E20000F00E3692069181A09F072F932003B004B
:109E300009F082FD0022104B08F066FB0F4A104B20
:109E400008F04CF809F0FAF90021041C06F078FD3E
:109E5000002804D0201C0B4906F092FE041C201C94
:109E600009F098F902000B000020074908F0C6FD30
:109E700009F018F9D0BDC04600806640EA2E44546F
:109E8000FB2109400000B44300807640F0B5050096
:109E900087B0006C0CF0DDF9041C286C0CF0D0F9D4
:109EA0000221061C28000CF042FA0221059028002D
:109EB0000CF04FFA07F060FC0221019028000CF032
:109EC0005AFA07F059FC0290201C09F063F90400CB
:109ED0000D0009F0E9FC09F0B1F929000390200018
:109EE00009F000FC09F0AAF90490301C09F052F9BD
:109EF00006000F0009F0D8FC09F0A0F93900041C95
:109F0000300009F0EFFB060005980F0007F034FC65
:109F10003900051C300009F091F9011C281C07F0DC
:109F20006FF9211C051C019807F06AF9039907F0E5
:109F300067F9011C281C06F023FE211C051C029851
:109F400007F05EF9049907F05BF9011C281C06F084
:109F500017FE09F01FF904000D000298039907F09D
:109F60004FF90499061C019807F04AF9011C301CAE
:109F700007F05AFA09F00EF922002B0009F0DCFC78
:109F800000220C4B08F0C0FA0B4A0C4B07F0A6FF5E
:109F900009F054F90021041C06F0D2FC002804D07A
:109FA000201C074906F0ECFD041C201C07F0C2FB36
:109FB00007B0F0BD00807640EA2E4454FB211940E2
:109FC0000000B443F8B50022102105000CF070F930
:109FD0001D4E002835D1032708212800FFF704FF74
:109FE000B0422ED03840041E27D1FA23174A69897F
:109FF0009B005943130050331E00083A1F68180095
:10A000008F4203D3083B06009342F7D1FA21306810
:10A01000890006F00DFBA0226881112128000CF0B8
:10A0200047F900280DD10122337910211A43280065
:10A030000CF03EF9002805D003E06420FFF7D0F8CB
:10A04000CAE7014C2000F8BD0EFCFFFFD89B0200C0
:10A05000F0B504260500807985B03040041E16D185
:10A06000022728000CF032F9AB790622BB433343B8
:10A07000AB71A988012368460BF05EFFAB79200025
:10A080001A00B243AA713B4202D1024800E00248E2
:10A0900005B0F0BD14FCFFFF15FCFFFF10B5837980
:10A0A00004005A070DD49B0701D4FFF7D1FF236C9E
:10A0B0002000002B02D0FFF7E9FE03E0FFF7A6FE29
:10A0C00000E0014810BDC04615FCFFFF70B5466CAE
:10A0D00086B001AC050001916260A360002E0CD037
:10A0E0000B4905A8FFF7D0FA0C23220005A9300080
:10A0F0000CF067FE05A80BF085FE2B000C3307CC97
:10A1000007C30222AB791343AB7106B070BDC046E2
:10A1100065A70200642330B504000281438185B045
:10A120008180FFF74FFF0222A379606C9343A371F4
:10A13000002813D00C490CF011FE051E0ED00100B2
:10A140000C22103101A80FF04FFB20000199029A58
:10A15000039BFFF7BBFF2800FFF7A8F90122A379B3
:10A160001343A37105B030BD65A70200F7B5009396
:10A1700008AB1B880400019309AB1D8800230F0066
:10A1800016000D4A8380083283710260C360036148
:10A1900043618361C36103621D2124300CF07BF8AD
:10A1A000009BE7632664290020006364019AFFF79F
:10A1B000B1FF2000FEBDC046C09B020082B0F0B5DA
:10A1C0000400A3B06420299328920FF0DEF9042242
:10A1D0000C2107A80DF057F82422CE4919A80FF03A
:10A1E00003FB052204A811000DF0E2FECA4905A8F0
:10A1F00002F080FBA06800F07BFBA568C74916A8A9
:10A20000FFF742FA782216A9280000F011FC16A8E0
:10A210000BF0F8FD6E256420013D0FF0B6F9002D1E
:10A22000F9D1A06800F064FBA0680CF049FA0121A4
:10A2300060680BF081FF0121070060680BF08FFF61
:10A2400006000A200FF0A1F90022B54B03929F42AD
:10A2500010DB013203923A00C8320BDB0422039276
:10A26000C8229200974205DC03220392C82F01DC2A
:10A27000013A0392002202929E4210DB01230293D4
:10A280003300C8330BDB04230293C8239B009E4298
:10A2900005DC03230293C82E01DC013B02935D26FB
:10A2A00004A80DF07CFE02ABF61837007B78002B7B
:10A2B00006D07B1E19783A78FF2304A802F0B0FA82
:10A2C000812302AA03379B189F42EFD16B460822D5
:10A2D0009A5E6B4604A80C21595EFF2302F0A0FA97
:10A2E0000023A068009374301A0004A90DF067FEE3
:10A2F000731E1B78039A934234D13378029A9342A7
:10A3000030D17778002F2DD1390020680CF00FF86C
:10A3100007F032FA3A00031C290007A80CF0FEFFF0
:10A32000390020680CF015F807F026FA0122031C0A
:10A33000290007A80CF0F2FF390020680CF01BF888
:10A3400007F01AFA2900031C022207A80CF0E6FF06
:10A35000FE2329009B05032207A80CF0DFFF012341
:10A3600001357370812302AA03369B189E42BFD128
:10A3700064200FF00AF90B2D00DC58E707A80CF059
:10A38000B9FF012201000AA80CF07DFF002507A8F3
:10A390000CF0B0FF85423CDA2900002207A80CF03F
:10A3A000ABFF0022061C290007A80CF0A5FF011C2A
:10A3B000301C06F025FF2900061C012207A80CF01E
:10A3C0009BFF0122071C290007A80CF095FF011C28
:10A3D000381C06F015FF311C06F0D2FB2900061CC4
:10A3E000022207A80CF088FF02222900071C07A8F8
:10A3F0000CF082FF011C381C06F002FF311C06F035
:10A40000BFFB2900031C00220AA80CF087FF0135BE
:10A41000BDE707AA1100012316A80CF099FF16A9A1
:10A420000DA80CF0F4FF16A80CF089FF0AAA07A9E2
:10A4300010A801230CF08CFF002310AA0DA913A86B
:10A440000CF086FF002213A811000CF055FF00222B
:10A45000061C012113A80CF04FFF0022051C02214D
:10A4600013A80CF049FFFC21071C8905301C06F0DD
:10A47000C7FE07F05FF9FC21060016908905281C2D
:10A4800006F0BEFE07F056F9FC210500179089057D
:10A49000381C06F0B5FE07F04DF92A000300310024
:10A4A00018902068FFF712FEA0680CF009F905A9C2
:10A4B00006A8A5680DF06BFD00221A4B009206A9B4
:10A4C00001932800130000F055FA06A80DF052FD84
:10A4D000FA2080000FF059F8A0680CF0F1F813A8EA
:10A4E0000CF02DFF10A80CF02AFF0DA80CF027FF90
:10A4F0000AA80CF024FF05A80DF03CFD04A80DF0FF
:10A5000039FD07A80CF01BFF23B0F0BC08BC02B05B
:10A510001847C04670A7020094A70200D9A70200FE
:10A52000E0FCFFFFDC050000F0B58360204B85B048
:10A530001F68050001604260002F36D02820FEF71A
:10A5400093FF040010300BF0ECFC05232380013353
:10A5500063801820FEF788FF164B06000293002345
:10A5600020C6190001901022300003930FF05AF911
:10A57000082202A930000FF037F90F4B019A210091
:10A5800053610023E360C233A3800023A2602362EF
:10A5900063623B6838005B689847002805D020005C
:10A5A0000BF0E6FB2000FEF781FF280005B0F0BDB0
:10A5B000AC250020BDA101008F630200F7B50400A7
:10A5C000A37A01229C4610230025266F2900F3560A
:10A5D00063449A40F36800920193019B9D4231DAF3
:10A5E000B36872696B4363445B00E77AD3181A78E7
:10A5F0005878E379012F04D15F1E3F1A10003A000A
:10A600000EE0022F05D15F1EBA1A277A013F381AD1
:10A6100006E0032F04D1277A013FBF1A0200380059
:10A620005B004343606F8218D3189B79627A934230
:10A6300000DD1300627B1A4202D00123AB401943B4
:10A640000135CAE71123C943F356606C9940236969
:10A650001940009B19430FF05AF8A37B072B18D819
:10A66000627B581C520062730A499A00A073022B45
:10A6700003D888580EF07EFFA2E7074B2000236323
:10A6800000236363054B8958E462236414300EF0A1
:10A6900019FEF7BD489C0200BDA50100CF63020072
:10A6A00010B50400044B03600EF004FE200005F01A
:10A6B00065FA200010BDC046BCA0020010B5040021
:10A6C0000E4B08330360FEF7D1FF200074300DF00D
:10A6D00051FC200060300DF04DFC200058300BF094
:10A6E00091FB200050300BF08DFB2000044B143008
:10A6F0006361FFF7D5FF200010BDC046309C02000B
:10A70000D0A00200F8B500250400324B8580083344
:10A7100003608571143016000F0005F019FA20004F
:10A720002D4BE562636125645030FEF7E7FF2000A2
:10A730005830FEF7E3FF2000603002F06BF8200095
:10A740000423F25E33682667590009B274300DF0B5
:10A750002FFC3378226FE371736801262372102374
:10A76000E572A572A7802561D356916859188B426E
:10A7700004DA3000984001330543F8E71123012043
:10A78000D356D16859188B4206DA02009A402669DE
:10A79000013332432261F6E71420FEF765FE226999
:10A7A00000212A430123060005F06AFCFF226272A1
:10A7B000220000230125483266646573A373237366
:10A7C00020001370A366FEF733FFA37920002B430C
:10A7D000A371F8BD309C0200D0A00200F0B5437A0E
:10A7E00085B00400002B69D00122837A11009C46B9
:10A7F0001023066F0025F35603926344994001919C
:10A800002900F3680293029BAB422CDDB3687269A6
:10A810006B4363445B00E77AD3181A785878E3797E
:10A82000012F04D15F1E3F1A10003A000EE0022FE4
:10A8300005D15F1EBA1A277A013F381A06E0032FA6
:10A8400004D1277A013FBF1A020038005B0043435E
:10A85000606F8218D3189B79002B02D0039BAB400A
:10A8600019430135CFE71123C943F356606C994072
:10A8700023691940019B19430EF049FF667AB31E04
:10A88000DBB2FC2B14D8FEF781FE0D4B05002363D1
:10A8900000230C4863630C4BFF21E4622364704384
:10A8A00005F050FF29004143200014300EF00AFD4E
:10A8B000637A012B02D820000BF093FD05B0F0BDA8
:10A8C000E3630200B6030000CF6302001FB501235B
:10A8D00081881A0068460BF02FFB012303491A00F8
:10A8E00068460BF029FB05B000BDC046FE03000022
:10A8F0001FB5030048331A780400002A0DD0002247
:10A900001A70012381881A0068460BF015FB012399
:10A9100004491A0068460BF00FFB200074300DF05C
:10A920003EFB1FBDFF03000010B548300378002B2D
:10A9300006D00378012B03D0012102480BF08EF9D9
:10A9400010BDC046FF03000010B501210400062021
:10A950000BF084F9064B984209D1230048331A784A
:10A96000002A04D01B78012B01D020BFF5E710BDD1
:10A9700016FCFFFF73B5079C0500002C09DB0600E1
:10A9800048363078002806D03078012803D00D48AA
:10A9900016E00D4814E006981BB2C0B200902800E3
:10A9A00012B274300DF00BFB0020844207D02B0054
:10A9B0004A331C8007234C352880337000E0200088
:10A9C00076BDC04612FCFFFF17FCFFFFF0B587B055
:10A9D0000D9E05000F0002920393002E1EDBFFF771
:10A9E000A3FF2B0048331C78E4B2002C18D13900A7
:10A9F00005A80DF0CCFA0C9B029A009305A9039BC5
:10AA000001962800FFF7B6FF05A80DF0B3FA301E37
:10AA100007D02800FFF798FF200002E0024800E07E
:10AA2000024807B0F0BDC04617FCFFFF11FCFFFF56
:10AA3000F8B50400171E09DD060048363378002BF0
:10AA400006D03378012B03D00C4816E00C4814E0F4
:10AA50002200E3795632013B1370230000252000C9
:10AA600054331D8050300BF02AFA23004A331F80E4
:10AA7000022328004C3425803370F8BD12FCFFFF00
:10AA800017FCFFFFF7B505000F00161E18DDFFF7D6
:10AA90004BFF2B0048331878C4B2002C12D1390078
:10AAA00001A80BF004FA320001A92800FFF7C0FF4B
:10AAB00001A80BF0A7F92800FFF746FF200002E0ED
:10AAC000014800E00148FEBD17FCFFFF11FCFFFF3D
:10AAD000FF2902D84172002000E001487047C046BB
:10AAE00017FCFFFFF0B51F0085B00AAB1B78040010
:10AAF000039300933B000D0016000EF00AFB0028A4
:10AB000032D0237D082B2DD8236800221900FC3178
:10AB10008A62A021C9005A50154905205A500138AF
:10AB2000C046C046C046C046C046C046C046C046F5
:10AB3000C046C046C046C046F1D1236801325A50D3
:10AB4000A0220521D200995005F004FC039B32009D
:10AB5000009329003B0020000EF0DBFA237D013337
:10AB60002375CCE7034800E0207505B0F0BDC04672
:10AB7000FC0F00000EFCFFFFF0B51F0085B00AAB14
:10AB80001B780400039300933B000D0016000EF0A9
:10AB9000A8FA002832D0237D082B2DD82368002264
:10ABA0001900FC318A62A021C9005A5015490520BC
:10ABB0005A500138C046C046C046C046C046C0468E
:10ABC000C046C046C046C046C046C046F1D1236814
:10ABD00001325A50A0220521D200995005F0BAFB4B
:10ABE000039B3200009329003B0020000EF079FA0D
:10ABF000237D01332375CCE7034800E0207505B0C1
:10AC0000F0BDC046FC0F00000EFCFFFFF8B50D1EA6
:10AC100025D000260227C468002C1DD0AA88A3884E
:10AC200053403B4216D13A4203D1AB883B4207D056
:10AC300010E0A968A0680CF015FB002804D1F4E727
:10AC4000A368AA68934205D12B88002B09D02288DB
:10AC50009A4206D0646ADFE72000002E0DDC074828
:10AC60000BE06B88002B02D062889A42F2D1A38855
:10AC7000034A01361343A380ECE7F8BD17FCFFFF3E
:10AC80000080FFFFF0B5060085B00D1E58D00127EB
:10AC9000C468002C19D00221AA8800230A4202D0DD
:10ACA000A3885B083B40226829688A4253D1002B65
:10ACB00006D0A968A0680CF0D5FA002842D14AE075
:10ACC000A368AA68934246D13CE0F1682A880F0045
:10ACD0000B1E0CD1F5600123214968460BF02CF9BD
:10ACE00020003AE0586A1F00002812D0030018889C
:10ACF0009042F7D318003B000488944209D147885A
:10AD00006C88A74205D2446A0300002C01D02000C1
:10AD1000F2E799420AD10888824204D306D14C88CE
:10AD20006888844202D96962F56002E0596A696202
:10AD30005D6201230A4968460BF0FEF800200CE032
:10AD400008480AE0A3881AB2002A02DA5B045B0C06
:10AD5000A380054801E0646A9BE705B0F0BDC046EA
:10AD6000FD03000017FCFFFF16FCFFFF064B10B5AC
:10AD70001A00040008322C33026043600430FEF7EE
:10AD8000A3F9200010BDC046689C020008B4024B25
:10AD90009C46043808BC60476DAD010008B4024B06
:10ADA0009C46043808BC6047016802000C4A002336
:10ADB00011002C32083110B5038183724260C360E8
:10ADC000036143614383016004000430FEF76EF9C0
:10ADD000044B1A68002A00D11C60200010BDC04638
:10ADE000689C0200AC250020F7B50E000125C46860
:10ADF0000192002C37D0238832889A4201D0002B50
:10AE000026D1638872889A4201D0002B20D1FEF7A8
:10AE1000C1F80123002806D0A288BF331340C03BED
:10AE20005A425341DBB2019A934210D1A7883BB2F8
:10AE3000002B0CDB10223100A0180EF0D5FC4023B3
:10AE40001F4207D1FEF7A6F8002803D006E0002530
:10AE5000646ACEE720000BF0DCFCF9E72100034830
:10AE6000FEF74AFAF4E72800FEBDC0461368020068
:10AE700008B4024B9C46043808BC60479D69020038
:10AE8000F0B587B001930EAB1B88060003930D9BB2
:10AE90000D000093019B02920C9F002B3DD0002FD0
:10AEA00002D1009BDB0738D52820FEF7DDFA04002D
:10AEB00010300BF036F86B461B8925806380182014
:10AEC000FEF7D2FA049707000500009B10220593B5
:10AED000019B002108C738000EF0A4FC082204A939
:10AEE00038000EF081FC0E4B02226B610023A5603E
:10AEF0000399E3602362636233680A43A2805B685C
:10AF0000210030009847002808D020000AF030FFC8
:10AF10002000FEF7CBFA034800E0034807B0F0BD7D
:10AF2000C969020016FCFFFF17FCFFFFF0B5040023
:10AF3000160000258380164A164B85710260218118
:10AF400046810573186889B08C46A8421DD0124A04
:10AF500005950492C02202926A4604AB82CB82C25B
:10AF6000614623002A00FFF78BFF0B4A094B06922C
:10AF7000C022186802926A4606AB079582CB82C24D
:10AF800023002A003100FFF77BFF200009B0F0BD4D
:10AF9000AC9C0200AC250020F36A020030B500240E
:10AFA00003730123034D84710560818082734373B1
:10AFB000846030BDC49C020070B5040000250D4BB8
:10AFC0000E000833858085710360210018300BF076
:10AFD00048FE2000210020300BF066FE064BA680C4
:10AFE000A571E5712572E5602561656120001C6031
:10AFF00070BDC046D49C0200B42500208379DB07D5
:10B0000002D5C160002000E00048704716FCFFFF39
:10B010008379DB0701D5C06800E001487047C0466E
:10B0200016FCFFFF70B545690400002D21D0037A9E
:10B03000032B20D8FFF7ECFFA8622C20FEF714FAB0
:10B040002C22002105000EF0EDFB00236269536203
:10B050002369002B01D1226105E0596A002901D042
:10B060000B00FAE75A62237A6561013323720020EC
:10B0700002E0024800E0024870BDC04617FCFFFF36
:10B0800013FCFFFF154B70B55A68154D002A03D00D
:10B0900000225A600132AA601B69114E002B1CD09D
:10B0A00000210E4B0F4C19618023DB00F358012B5C
:10B0B0000ED1A923DB00F15820684942FFF79EFF1B
:10B0C0002068FFF7AFFF23685A69074BF25002E090
:10B0D0002068FFF793FF0123AB6070BDFC100040B8
:10B0E00000100040B42500200405000003000069A2
:10B0F000002809D00221054AD167426A1A611A7AEA
:10B10000013A1A72024B19607047C04604E100E030
:10B1100000E100E010B5002903DB024B19600EF0DE
:10B12000A4F810BDB825002070B504001E0004ABC3
:10B130001D7804F0C3FC20000E4B40302360FEF766
:10B14000DDFA230001364C33013522001E701D73D9
:10B150000023E1214E32A364636513805380938101
:10B16000D381013B200063644902FFF7D3FF200035
:10B1700070BDC046109B0200F7B580277F053D6972
:10B180007C690822113C6C430600210068460EF0E1
:10B190002BFB104B009A9A4219D000930023019385
:10B1A00079693000133969430BF093FD019A0099D6
:10B1B00030000BF0A6FD210030000BF08AFD79690C
:10B1C000AB0813396943220030000BF08CFD019865
:10B1D000FEBDC046FECA0000F0B50D00ABB00D923A
:10B1E00000213022060012A80B930EF01BFB280052
:10B1F0000EF058FB431C0C93102B00DDB6E00B9BAC
:10B20000202B00D9B2E0290030000BF0A7FD071E6B
:10B2100029D129000C9A12A80EF0E6FA0D990B9A82
:10B2200016A80EF0E1FA80235B051F695A69300009
:10B23000113A7A435D690D92FFF79EFF0D9B302214
:10B240000833002104001EA80F930EF0EBFA29002A
:10B250001339794330000BF03CFD0F9B0B93002317
:10B260000C930E9335E010300B9A0D990EF0ADFA59
:10B2700004003800FEF71AF9002C7AD0C9E70B99C0
:10B2800030221EA80EF0B0FA12A91EA80EF000FB84
:10B29000002822D1384930002200109111940BF07F
:10B2A00030FD6A460B9B099315AB23CB23C223CBFE
:10B2B00023C223CB23C23000149B1299139A0BF0A4
:10B2C0002EFD01230E930B9B30330B930C9B01330C
:10B2D0000C930C9BA342D2DB10E06A460B9B0993B4
:10B2E00021AB23CB23C223CB23C223CB23C23000E9
:10B2F0001E991F9A209B0BF012FDE4E7E5433021D5
:10B30000ED1725404D430F9B5D190E9B002B1BD164
:10B31000B81E05F08DF984422AD017490134300057
:10B320002200109111940BF0ECFC6A46099515ABC4
:10B3300023CB23C223CB23C223CB23C230001299B9
:10B34000139A149B0BF0EBFC0D9930000BF0C1FC31
:10B3500080235B0559690C23634313390233794316
:10B360000D9A30000BF0BFFC002402E0034C00E01B
:10B37000034C20002BB0F0BDFECA000017FCFFFFFD
:10B3800013FCFFFF70B50400A280FA22002308001E
:10B390000C49920008312160A3716061E260A360F2
:10B3A000638209490BF0DAFC051E09D00100200078
:10B3B0001031022212300EF017FA2800FEF776F84C
:10B3C000200070BDEC9C0200E7A7020030B502250A
:10B3D000837987B004002B4204D1FDF767FEA3797F
:10B3E0002B43A37120000BF0FDFC00282DD06B46F1
:10B3F000DD1C28000BF0EDFC2B78002B03D001A8FE
:10B400000BF0E5FC0FE00122114B1A60114A536862
:10B41000002BFCD000220F4B5A600F4B01321B68EF
:10B4200001930B4B5A600322019BD9170A40D31892
:10B430009B102382FEF7E4F8E368A1881818012323
:10B44000A0601A0002A80AF077FD002007B030BD06
:10B4500000C00040FCC0004008C50040022802D1E6
:10B460000122014B1A707047A628002070B5064CC7
:10B4700005002378002B04D1044801F051FC01237E
:10B480002370280070BDC046A72800205DB40100CD
:10B4900070B50C000AF070FB002811D0164B00228A
:10B4A000A50A1C001A7028000BF0B0FC002803D07D
:10B4B0000A200EF06AF8F6E72378002BFCD019E09A
:10B4C000022180250D4B0E4AED00995080205959DC
:10B4D000C0000029FAD0A121084DC9006C501958AC
:10B4E0000029FCD00020054988508021C9005A5805
:10B4F000002AFCD070BDC046A628002000E0014014
:10B5000004050000F8B50C0015001E000AF034FB1D
:10B51000002812D0194B00221F001A703200290097
:10B5200020000BF071FC002803D00A200EF02DF84B
:10B53000F4E73B78002BFCD01EE00121104A114BB0
:10B54000944699508021C9005A58002AFCD080277F
:10B550000022FF008021C900964207DD9100685853
:10B560006050D9590029FCD00132F3E7002260462F
:10B570001A505A58002AFCD0F8BDC046A628002010
:10B580000405000000E0014010B50400054B08333D
:10B5900003601C300AF036FC200018300AF032FC40
:10B5A000200010BD049D0200FF23F0B52B4C8DB090
:10B5B00023700023050069460088009304F022F8F8
:10B5C000002802D16B469B782370254E3368DB68D8
:10B5D000002B06D1002328881A0019000BF01AFC52
:10B5E0003AE02378032BF5D81E4901A8FEF74CF862
:10B5F000336801A9DE6804A80AF059FC04A93000E8
:10B600000BF0D9FB060004A80AF0FCFB371E1ED085
:10B6100031002022103104A80EF0E6F83000FDF7CA
:10B6200045FF217804ABC9005918082202A80EF082
:10B63000DBF828880123082202A90BF0EBFB012785
:10B64000002804D12888084A0C210BF0E1FB01A84E
:10B650000AF0D8FB002FBDD00DB0F0BD882000202F
:10B66000BC250020EFA70200FFFF0000F0B58379A2
:10B6700091B004005B071BD5FDF7C2FF00232269D0
:10B68000801A9941994203D1F423FF3398420FD98C
:10B69000A068002808D0364B1D8801F03DFA0368E9
:10B6A00015221B6A290098470422A3799343A371AA
:10B6B000A3799B075AD52F4D2B68DB68002B51D0FF
:10B6C0002D4B1A780193032A4CD8294B2B491B8800
:10B6D00004A80093FDF7D8FF2B6804A9DE6808A82A
:10B6E0000AF0E5FB08A930000BF065FB070008A88D
:10B6F0000AF088FB02AB9E1D08233200338006A9A6
:10B70000073B00980BF088FB002F08D0390020225F
:10B71000103108A80EF068F83800FDF7C7FE019B4D
:10B7200032881B7806A9DE0008AB9E1930000EF0A7
:10B730004CF8002813D0082206A930000EF054F867
:10B740002B6804A9DD6805A80AF0B1FB202308AA2C
:10B7500005A928000BF035FB05A80AF053FB04A847
:10B760000AF050FB0222A3799343A37111B0F0BDFC
:10B7700050280020BC25002088200020EFA70200D0
:10B78000F7B5040000250192C77FAF4254D966196E
:10B790007078884202D1152927D804E0605D2D1801
:10B7A0000135EDB2F1E701228A40264802421CD061
:10B7B000D91901201F2943DCE1193718B94210D8E3
:10B7C0000021C8B2834205D9019A7018575C013133
:10B7D0008770F6E7625D9A186255E27F9B18E377FF
:10B7E00028E00878C8540139E8E7655D013DEDB20D
:10B7F000AB4209D10021C8B283421BD9019A70180B
:10B80000545C01318470F6E7FF187F1B01201F2F65
:10B8100016DC0227A81C7F4236187F1BE07F221807
:10B82000964203D23078F0550136F7E7451B023DCA
:10B83000E57701E0002003E0019A20000BF036FBE1
:10B84000FEBDC046FC002000F0B585B001930AABF8
:10B850001E880BAB1B78451C02930EAB1B780400B3
:10B8600003930B78170003704B8A10224382013137
:10B8700028000DF0B9FF6B469B88268363836B46D7
:10B880001B7B002623776B4601221B7A6761E683C8
:10B89000EB77A31CDA770C9B0C2563622300200056
:10B8A0000D9A28331A705E709E702A0031002C3079
:10B8B0000DF0B8FF2000074BE663A3632A003100B8
:10B8C00040300DF0AFFF2000034B2665E36405B068
:10B8D000F0BDC0462F6E0200216E020070B50D0053
:10B8E00001F01AF904000368002D02D15B69984742
:10B8F00008E09B689847854204D2236820009B6833
:10B9000098470500FA2080006843024904F090FE41
:10B91000E08070BD71020000F0B507001600A1B014
:10B9200002C704006B4918A81D000BF0F1FA331E82
:10B9300003D030000DF0B6FF83B201220492002242
:10B9400003920292023201920093320018A9380049
:10B95000FFF77AFF23006049583318A807930BF0CC
:10B96000D7FA2B1E03D028000DF09CFF83B20122D2
:10B9700004920022039202920232019200932A0062
:10B9800018A90798FFF760FF23005449AC3318A8A3
:10B9900008930BF0BDFA269B002B03D018000DF086
:10B9A00081FF83B2012204920022039202920232AA
:10B9B00001920093269A18A90898FFF745FF631C87
:10B9C000FF33474918A809930BF0A2FA279B002BD5
:10B9D00003D018000DF066FF83B20122049200220A
:10B9E000601C03920292023201920093279A18A9D6
:10B9F000FF30FFF729FF23005533FF33394918A8DB
:10BA000009930BF085FA289B002B03D018000DF04A
:10BA100049FF83B201220492002203920292023271
:10BA200001920093289A18A90998FFF70DFF2300A7
:10BA3000A933FF332C4918A80A930BF069FA299B04
:10BA4000002B03D018000DF02DFF83B201220492C9
:10BA5000002218AD03920292023201920093299AB9
:10BA600029000A98FFF7F0FE204B1B780B93002B60
:10BA70002DD1079B12971393089B0DAF1493631C52
:10BA8000FF331593099B1A4916930A9B38001793A5
:10BA90000BF03EFA1D2149203B7810222B707B8A47
:10BAA00012AE6B8206ABC918C0180DF09DFE0623BE
:10BAB0002B756B469B8D2068AB83AE6101F03CF823
:10BAC000036829001B6898470122084B1A70200060
:10BAD00021B0F0BD292A0000242A0000252A0000F8
:10BAE000272A0000262A0000282A0000A828002073
:10BAF0000A18000070B5002504000A4B8580083341
:10BB000085710360C1601830FDF7F8FD20001C301E
:10BB1000FDF7F4FD044BA5601C6001236561200066
:10BB2000A37170BD049D0200BC250020FA2130B530
:10BB300085B0050001230222890068460AF0FCF95D
:10BB4000074C2068002809D00BF01BFA2988054B08
:10BB500022681980022193790B43937105B030BD9F
:10BB6000BC2500205028002010B50C1E072C0BD837
:10BB7000806800F0D1FF054B195703685B6C98474C
:10BB8000002802D0024800E0024810BDFDA80200D3
:10BB900016FCFFFF17FCFFFFF0B5A24C0D00A544FB
:10BBA000040007939AAB1B789F4909A80493069257
:10BBB000FDF76AFD200029001C300AF080F9C02042
:10BBC000800001F0A3F80820FDF74EFC07000021DB
:10BBD00000F06AFF15AD0021A7600C220EA80DF041
:10BBE00021FE2B000EAA43CA43C3904B2900EB60F1
:10BBF000002338002B610CF06AFAA06800F08CFF7B
:10BC00000C220021059028000DF00CFE1420FDF7F9
:10BC10002BFC874B2A0015930300C2CAC2C3854B75
:10BC2000059EC3600023A43603613368002B00D057
:10BC300003613060A06800F07FFF0C220021060045
:10BC400028000DF0EFFD1420FDF70EFC7A4B159344
:10BC5000030086CD86C3794BC36000230361336B39
:10BC6000002B00D003613063A06800F055FF15ADD4
:10BC70000C220021060028000DF0D4FD1420FDF751
:10BC8000F3FB6F4B98361593030086CD86C36D4B3F
:10BC9000C360002303613368002B00D003610125DA
:10BCA00004AB1B7C04AA2B43306008A92800137442
:10BCB0000BF0B4F8A06800F04FFF036862495B6ABC
:10BCC0009847A06800F048FF036860499B6998475F
:10BCD000A06800F041FF00230268009316680499F1
:10BCE0002A00B047049B002B0AD020000BF052F929
:10BCF000032805DDA06800F02FFF0368DB68984784
:10BD00000EA80BF0CAF82F2004ABC0180BF0C5F832
:10BD1000362004ABC0180BF0C0F83D20042504AB5E
:10BD2000C0180BF0BAF80EAB0A93A06804AB5D77AD
:10BD300000F012FF03680AA91B699847A06800F089
:10BD4000EBFE03680AA95B6D9847A06800F0E4FE6B
:10BD500003680021DB6D9847A06800F0DDFE0368F2
:10BD600002219B6D984700212000FFF7FDFE18205F
:10BD7000FDF77AFBA16800F0FDF9354B354A1B68E9
:10BD8000A1680393344B15A81B680CAE0293334B88
:10BD900000271B680193069B1B685B190093304BBF
:10BDA00012681B68FFF7B8FD3020FDF75DFB079AAE
:10BDB000A16800F09DFAA06800F0AEFE03683100B3
:10BDC0009B6A98470823A0683380DB187380B7808C
:10BDD00000F0A2FE03683100DB6A98472900A068E2
:10BDE0000BF0A2F8099A09219378A06852190BF078
:10BDF000AEF8A06800F090FEC8210771A068FFF7B8
:10BE00006DFD04AB1B7FBB4204D0A06800F084FE34
:10BE10000BF074F809A809F0F5FF95239B009D44E9
:10BE2000F0BDC046ACFDFFFFFBA702003D6E020067
:10BE30002DBB01004B6E0200A9B50100596E020036
:10BE4000876E0200676E020065BE010099BE0100A8
:10BE5000C4250020C02500200C200020C82500207B
:10BE60000820002013B506226846FDF71DFC094B8B
:10BE70001C68002C0AD0694601A80AF018F82000B6
:10BE800001A90BF0A8F801A809F0BCFF684609F069
:10BE9000B9FF13BDBC250020002373B501AE0C0013
:10BEA00031000500019303F0ADFB002802D1B27808
:10BEB000064B1A70064B1868002806D06142614193
:10BEC000044BC9B21D800BF08EF873BD8820002092
:10BED000BC25002050280020F0B5040097B0029146
:10BEE00007A89B490592FDF7CFFB9A4908A8FDF7E3
:10BEF000CBFB22000FAD28001C3207A909F0EEFF92
:10BF000008AA290009A809F0E9FF280009F07AFF2A
:10BF100091490AA8FDF7B8FBA06800F0FDFD036891
:10BF20000DAE5B69984728000AF0B7FF332004ABD9
:10BF3000C0180AF0B2FF3A2004ABC0180AF0ADFFF7
:10BF4000412004ABC0180AF0A8FF04230D9500257A
:10BF5000A0687371357100F0DFFD036831005B6D1F
:10BF60009847A06800F0D8FD036829009B6D9847AA
:10BF7000A06800F0D1FD070006000A371F22290043
:10BF800038000DF04FFCFD7730000AF0AEFF0621BF
:10BF9000A0680AF0C9FF099A09219378A0680432C1
:10BFA0000AF0D5FFA06800F0B7FDC8210571A068B0
:10BFB000FFF794FCA06800F0AFFD0581A06800F0D9
:10BFC000ABFD0AF09BFF0298FEF792FC0AA90CA8B1
:10BFD00009F06DFF78220CA90298FEF753FD0CA81A
:10BFE00009F010FF029920000BF010F82000FDF777
:10BFF0005DF80423FF27039504936369DB0735D5B8
:10C0000056490BA800F076FC0BA90CA80BF0BFFF5B
:10C0100000220CA91300019200920298FEF7D6FCB0
:10C020000CA80BF0A7FF039B002B01D1043F00E0FD
:10C030000437282F03DD0023FE2F06DC06E00298DC
:10C040000AF03EFB0123002F00DC039305980AF061
:10C0500015F9002806D0012362699A431300049A57
:10C06000134363610BA80BF085FF00256369049AF5
:10C0700013422AD0FF210298FEF72AFD0025A3696A
:10C0800002229B5E9D421BDA200029B2183009F083
:10C090003BFF0023010002981A00743000F07CFC82
:10C0A000C8208000FDF79CF802980AF009FBC82020
:10C0B000FDF796F802226369134201D10135DEE7EC
:10C0C000FA208000FDF78CF80025022263691342F4
:10C0D00033D008261E401AD021490BA800F00AFCD4
:10C0E0000BA90CA80BF053FF00220CA9019200929F
:10C0F00013000298FEF76AFC0CA80BF03BFF1948EE
:10C10000FDF76EF80BA80BF035FF174D15E017493A
:10C110000BA800F0EFFB0BA90CA80BF038FF3300C5
:10C1200032000CA9019600960298FEF74FFC0CA86D
:10C130000BF020FF0BA80BF01DFF6420FDF750F85B
:10C140000B4B01359D4200DC57E709F027FD54E712
:10C1500009A8020019A802001BA8020029A80200D1
:10C160006EA80200983A00008C0A0000ABA80200FA
:10C170008B0A0000F0B505000024574BA9B0083326
:10C1800003600391A96021000BAB1A1901345170AF
:10C19000102CFAD1012251481A701A1B013C015D82
:10C1A0005174002CF9D19A7B597B12020A43290061
:10C1B00045270C31029125211B7813AE337002AB59
:10C1C000FF18C9187282380010220DF00DFB029B77
:10C1D00002AA73610123338333770933FB771DABE5
:10C1E0001C706D239B181C706E2321009B18748398
:10C1F0000C22F4831EA81C7074620DF013FB384BE4
:10C200000C22B3632100F46323A80DF00BFB354B24
:10C210000322F364462302A95B18DA77220034650F
:10C220002C73059606AF3B1901345A70102CFAD1C5
:10C2300001232D493B703B1B013C0A5D5A74002CC5
:10C24000F9D111212520BB7B7A7B1B020BAE134356
:10C250003A78738202ABC9183270C01810220DF000
:10C26000C3FA01230398337505ABB361B48300F0BF
:10C2700063FC036831001B68984713ABDB8BA8682D
:10C28000AB8200F059FC03680094A98A029ADE6828
:10C290000123B047A86800F04FFC02901420FDF77E
:10C2A000E3F806000C2221000DF0BCFA3000012357
:10C2B0003461082220C03900079306940DF094FAE7
:10C2C0000A4BF360029B9B69002B00D0336128006E
:10C2D000029B9E6129B0F0BD1C9D020015A90200C1
:10C2E0002F6E0200216E020005A902006F7002008D
:10C2F000F0B500260400764BDDB0083303608160A2
:10C30000C260868086713200724947A80AF04FFFEA
:10C3100023001433089301230493113301930E3B3C
:10C320000093089A330047A9039602961DA8FFF7C9
:10C330008BFA3200684947A80AF039FF012322002E
:10C34000049307330193043B15AF1032009347A9C0
:10C3500033000396029632A8FFF776FA32005F495F
:10C3600038000AF024FF23001C33099301230493AF
:10C3700007330193043B39000093099A3300039675
:10C38000029647A8FFF760FA3200554938000AF0D4
:10C390000EFF5420FDF768F823001833079301239C
:10C3A00005000493113301930E3B39000093079A63
:10C3B000330003960296FFF747FA2800494BA5621F
:10C3C0000822EC620AA930300A930B960DF00CFAA1
:10C3D000454B0422AB63012329352B7026826682EC
:10C3E00023690999E36107980DF0FEF90422079982
:10C3F00008980DF0F9F96622032304A95218D3779F
:10C40000BA225218D377872252005218D377A26AE1
:10C41000A685911CCB771DAB0C9332AB0D930F927D
:10C4200047AB3200314910A80E930AF0C0FE30220B
:10C430003121452004AB9B181B7812323B7004ABB2
:10C440009B181B88323A7B8204ABC918C0180DF0C8
:10C45000CBF904230CADA0683B75BD61BE8300F031
:10C460006BFB036839001B689847822204AB9B185A
:10C470001B885432238404AB9B181B885432A3843A
:10C4800004AB9B181B88A068638400F055FB070071
:10C490001420FCF7E9FF05000C2231000DF0C2F971
:10C4A0002800134B2E6108221093119610A910C07A
:10C4B0000DF09AF90F4BEB60BB69B34200D02B61D2
:10C4C000BD612000FCF7F2FD20005DB0F0BDC0466C
:10C4D000289D020035A9020065A9020055A90200A5
:10C4E00025A9020081710200ED70020045A9020039
:10C4F00061C5010017710200F0B504000E001500BF
:10C5000085B000930CAB1B881030019309F009FD36
:10C51000268065801820FCF7A7FF070002AE3300D5
:10C520003D000AAA03CA03C3009B102208C50021CC
:10C5300028000DF077F93100082228000DF054F999
:10C54000064B02227B61200000230199A7600A4369
:10C55000E360A2802362636205B0F0BD4171020016
:10C56000F0B50B898DB00593CB68060004934B881A
:10C57000828C9A420ED1049C059B049A1B1BD318F3
:10C58000032B3BDD62882188012308A809F0D4FC35
:10C590000434F1E7428C9A4230D1049C059B049A02
:10C5A0001B1BD318032B29DD2388282006936388BF
:10C5B000F7680793124B089300230993FCF754FF85
:10C5C000C0236A460500029308AB03CB03C23300C5
:10C5D0000699079A2800FFF78FFF3B6829005B68E0
:10C5E00038009847002807D0002D05D0280009F012
:10C5F000BFFB2800FCF75AFF0434CFE70DB0F0BDB5
:10C600000172020070B5040090B080680AF0F3FD7A
:10C610000223010019401AD1A38D002B17D00D4B16
:10C620006A4604931023E568A1850591029304AB43
:10C6300041CB41C20A00230006A8FFF75DFF2B682B
:10C6400006A99B682800984706A809F091FB10B03E
:10C6500070BDC04601720200002815D00060416024
:10C660008260C360046145618661C76144460462BB
:10C670004C464462544684625C46C4626446046329
:10C680006E46466374468463002A06D0C46B043C3D
:10C69000043A25681560B442F9D18C6BA6464E6BFE
:10C6A000B546002B06D0CC6B043C043B1D682560CE
:10C6B000B442F9D10C6BA446CC6AA3468C6AA2465C
:10C6C0004C6AA1460C6AA046CF698E694D690C6917
:10C6D000CB688A680868496870470060416082607A
:10C6E000C360046145618661C761444604624C468B
:10C6F0004462544684625C46C462644604636E4687
:10C70000466374468463C46B043C043925680D6039
:10C71000B442F9D1C7698669456904697047006008
:10C7200041608260C360046145618661C7614446BF
:10C7300004624C464462544684625C46C462644669
:10C7400004636C4644637446846304697047846B75
:10C75000A646446BA546046BA446C46AA346846AF5
:10C76000A246446AA146046AA046C769866945692B
:10C770000469C368826800684168704710B5041E88
:10C780000DD00DF08FF8230001382018834208D215
:10C790001A7801780138197042700133F6E70248BF
:10C7A00000E0002010BDC04617FCFFFFF0B585B0CB
:10C7B00001900C1E28D00027C217161A56407D1C67
:10C7C000631902933000013B0A21039304F0A0F89F
:10C7D000CB17C9185940039B3031197030000A211A
:10C7E00003F0B0FF061E01D02F00E8E7019B002BED
:10C7F00003DA2D23029ABD1C137000262000665513
:10C80000FFF7BCFF300000E0014805B0F0BDC046B6
:10C8100017FCFFFF014B03607047C046409D0200BC
:10C8200030B504686088814206DAA588AA4203DA36
:10C83000002901DB002A01DA034804E042436018C2
:10C8400080188371002030BD17FCFFFFF0B5070092
:10C8500085B00E001D0000291FDD002B1DD00468CF
:10C86000638803938B4200DD0391A3880293934274
:10C8700000DD0292002306340193019B029A934249
:10C880000DDA29002000039A0CF0AEFF3B68AD19C9
:10C890005B88E418019B0133EEE7024800E00020CA
:10C8A00005B0F0BD17FCFFFFF8B504000D00160041
:10C8B0001F00002901DB002A02DA0D4B236016E07D
:10C8C000100048430630FCF7CFFD206009F081FBE3
:10C8D00023685D809E80002F06D03B003200290037
:10C8E0002000FFF7B3FF02E020000BF058FBF8BD7B
:10C8F000409D0200F0B5060087B00C1E05D0002058
:10C900000F0005000190010015E0224B03603EE09E
:10C910003022524294469C446246092A14D90A2B7A
:10C920000DD1019B2D1801330193A94200DA290092
:10C930000020050001373B78002BE9D106E00028F4
:10C94000F8D001350020F5E70120F3E76A46928828
:10C9500009B212B23000FFF7A7FF33689D1D03AB89
:10C960001F002278002A12D011003039092902D87C
:10C970001A70013309E000221A70BB4205D9380051
:10C980000CF012FF3B00287001350134E9E730005C
:10C9900007B0F0BD409D0200F0B5040087B004A8C8
:10C9A00015001E000F00FCF7E7FC23685A8895422B
:10C9B00008DA9B88B34205DD1F2F03D9059B00933E
:10C9C0009F4201DD18482DE0052300217B430093A1
:10C9D000049B0193009B019ACB18A03BD35C0022DF
:10C9E000029373189C4653192768039378888342EF
:10C9F00002DABB889C4507DB0132052AF3D10131FD
:10CA00000529E7D100200DE0634658435319FB1870
:10CA1000102717411B1802980740781E87417F4254
:10CA20009F71E9E707B0F0BD17FCFFFFF7B503689A
:10CA300006009C1D5B880D005A1A0192002918DD22
:10CA40000027994202DB0BF0AAFA14E033689B88B6
:10CA50009F4210DA6119019A20000CF0C5FE019B7B
:10CA60002900E0180BF08DFA336801375B88E41871
:10CA7000ECE7024800E00020FEBDC04617FCFFFFC7
:10CA800010B50548054C206009F0A6FA044A05498E
:10CA900020000CF05DFE10BD409D0200CC25002062
:10CAA00000200020757F0200002370B504000160A3
:10CAB000436099420AD1064D2B68002B02D10CF03D
:10CAC000EEF8286023689B00EB586360200070BD7F
:10CAD000DC25002070B500280DD10C4C2668002EF6
:10CAE00007D108300CF043FE05003100FFF7DCFFF2
:10CAF0002560206808E00122054906480B681340BC
:10CB000002D1026043600A6070BDC046D02500209B
:10CB1000E0250020D4250020436810B50400002B38
:10CB200002D104480CF079FC606803681B699847DF
:10CB300010BDC04675A90200436810B50400002B63
:10CB400002D104480CF069FC606803689B6998474F
:10CB500010BDC04675A90200436810B50400002B43
:10CB600002D104480CF059FC606803685B6A98477E
:10CB700010BDC04675A9020010B5040001F042FDC9
:10CB8000034B1B68002B01D02000984710BDC04606
:10CB9000E4250020F0B58DB0050002F073FB002005
:10CBA00000F014FF036807001B6998473B68040006
:10CBB0009B69380098473B6806005B6A38009847D5
:10CBC0000300288810380B2800D997E003F026FDD1
:10CBD000063D9696965A969696619673AF88200073
:10CBE00039000BF05AFE22006B7B58320193137808
:10CBF000A87919000223194306AB11701F80012385
:10CC000006AA9370D07013006A461279E91D9A72D1
:10CC10002B000622163307A80B930CF0E5FD290024
:10CC20000B2006AB06220E31C0180CF0DDFD94344B
:10CC30006368A360A068002860D0C36806A998470D
:10CC4000A368002BF4D01B69F3E720002E49AF88BE
:10CC50000BF023FE2200022058321378A979834377
:10CC6000137006AB1F809970A0346368A360A0683E
:10CC7000002843D0C36806A99847A368002BF4D0C6
:10CC80001B69F3E75B69A91D002B37D0A88898477B
:10CC900034E0636EAF79002B30D0A366A06E00281D
:10CCA0002CD0C36839009847A36E002B01D1636E66
:10CCB000F3E71B69F1E70122AB7BE91D1A40019202
:10CCC0005A07920FDB08029206A806226F7B049394
:10CCD0000CF08AFD6A46127906ABDA716A46127A5E
:10CCE0009F711A726A46127C20005A722B000F3311
:10CCF00009938C348030236806A9984729003000B6
:10CD00000BF00FFB0DB0F0BDFFFF00000723D7288D
:10CD100002D9024B1860002318007047E825002054
:10CD2000014B18607047C046E42500201FB5A323BF
:10CD30008022DB00D205D3580820DB0700D4053061
:10CD40001E4B48221E4902F0EFFD00280AD080B297
:10CD5000002807D1BFF34F8F1A4A1B4BDA60BFF38D
:10CD60004F8FFEE702AC0822002120000CF05AFD94
:10CD700001232370154B20001B6863600BF0C6F97C
:10CD8000002801D0072017E068460BF0BDF9002805
:10CD9000F8D169460BF0B6F90028F3D10C4802F03F
:10CDA000F3FD80B2002807D10A4802F0F7FD80B2F7
:10CDB000002801D101F01AF804B010BD138102005F
:10CDC000EC2500200400FA0500ED00E0E825002035
:10CDD00095CB010079CB010080B2002807D1BFF3C9
:10CDE0004F8F034A034BDA60BFF34F8FFEE7704764
:10CDF0000400FA0500ED00E013B504680093A46890
:10CE000013000A000149A04716BDC046FFFF0000FD
:10CE100037B506AC257804680195009324691300A2
:10CE20000A000149A0473EBDFFFF0000F0B589B0F0
:10CE3000019307000FAB0D0016000021082202A885
:10CE40001C780CF0EFFC0EAB1B8802AA1380019B30
:10CE50000393002C06D0310028000BF062F9002863
:10CE600041D154E03B007A79F833A2423DD90833EE
:10CE7000190008390988B14208D130222034A400B1
:10CE8000E3590133DB7F134202D12EE00134ECE79A
:10CE900002220020DB06DB0F04ACD31AA370019B37
:10CEA0002680E3600EABA3601A4BA0809D4207D1A1
:10CEB00000F08CFD03681B6998470BF0F1FC05003E
:10CEC000210028000BF031F980B200281FD0112872
:10CED0001CD013D8082817D002AA310028000BF064
:10CEE00020F9002812D0032011E002AA3100280006
:10CEF0000BF017F90028F6D1063008E0064B9842EF
:10CF000004D0064B9842E7D1062000E0052009B086
:10CF1000F0BDC046FFFF00000330000001340000F8
:10CF2000F0B5050097B008002E240B9100F008FF23
:10CF300004ABE4181090220010A901200BF0EFF8C8
:10CF4000002801D00320D4E023880B9A0A90938311
:10CF50000B9B0A9A1B7D934250D96B791D2B01D9EB
:10CF60000720C6E00B9B9B690C930A9B0C9A9B00C5
:10CF70009C586369002B46D1638B002B43D1631C03
:10CF8000DB7F022B3FD134E06979A31C1F31C9003C
:10CF90006918621CDB7FD27F089121002A31097851
:10CFA0000020079121002931097806910D990591FA
:10CFB0000C990491217F0391218B0291618B019146
:10CFC0006169009110A90BF0C2FE0028BAD16B79FB
:10CFD00007001A00203292001F335451DB005B5BC4
:10CFE000E3836B7901336B71230028331B78BB42D9
:10CFF00037D80A980130C3B20A93A9E72B790020E9
:10D0000001332B7175E0200000F09AFE002610908D
:10D010000D960C96230028331B78B342B4D9626A6C
:10D02000B3009F58342204AB9B1800221A700023CF
:10D03000002111AAD21801335170102BF8D14622C9
:10D0400004AB9B182C4A11A938001A800BF005F983
:10D05000002803D07B690C937B8B0D93731CDEB28D
:10D06000D8E78E239B00EB5C132B00D978E7626A2C
:10D07000BB009E580023180011A90B70CA18013379
:10D080005070102BFAD11C4B30004B820BF0E5F89E
:10D090000C9000282AD1300000F052FE8E2292001F
:10D0A000AA5C738B1D32FF325200AA180232029220
:10D0B000327F10900192328B10A9009272690C9805
:10D0C0000BF021FF002800D03CE78E238E219B002F
:10D0D000EA5C8900531CDBB26B541D337A32FF3398
:10D0E00092005B005651EB185B88F383781CC7B243
:10D0F0007AE717B0F0BDC04601290000F0B5040082
:10D1000087B0E36B2364266C002E08D0F3682100FF
:10D1100030009847236C002BF3D01B69F2E7200006
:10D120003C300BF05DF82000267166710C300BF07E
:10D1300057F8200018300BF053F8200024300BF083
:10D140004FF8200001AD30300BF04AF831000C22CE
:10D1500028000CF067FB23002A00443383CA83C3F2
:10D160000F4B3100236566650C2228000CF05AFB3A
:10D1700023002A00583383CA83C3094B0C226366F9
:10D180003100A66628000CF04DFB23006C3307CD60
:10D1900007C33000024BE667A36707B0F0BDC04687
:10D1A0006D81020070B50500FFF7A8FF041E1CD1B9
:10D1B00028007822210080300CF034FB2800E93070
:10D1C00050222100FF300CF02DFB28000822210006
:10D1D000F8300CF027FB064B2822E81821000CF051
:10D1E00021FB8E239B00EC5400E00624200070BD40
:10D1F0003A0200000B68002B01D1036002E0024BF1
:10D20000036000234360704711810200024B0B60F2
:10D21000092313607047C04698A9020010B50400A6
:10D22000002000F0D3FB03681B6998470300F33329
:10D230001C7086235B00C05003000021044AFC33AD
:10D240005A61044A99615A62F4300CF03BF810BDFF
:10D250004587020057870200012110B5044A0800E3
:10D2600002F004FA031E00D00B23180010BDC046C4
:10D270001DD20100F0B50600040087B0AC3673681B
:10D28000B360B568002D08D0EB68210028009847EE
:10D29000B368002BF3D01B69F2E72000B0300BF02D
:10D2A000A8FA2200FC235832117826000B40137094
:10D2B00023000A365C331D7029001F2230000CF059
:10D2C000B1FAF5772A3629001F2230000CF0AAFAAD
:10D2D0002000F57764300BF08CFA200098300BF0CA
:10D2E00088FA200001AEA4300BF083FA29000C224A
:10D2F00030000CF097FA230032006C3383CA83C3EA
:10D30000094BE567A3670C22290030000CF08AFA6C
:10D310002300803307CE07C32800044A90341A60E4
:10D32000256007B0F0BDC04637870200298702009C
:10D33000F0B593B0019000200C0000F047FB0368AB
:10D340005B6A984700F01AFC06AB00280DD000225B
:10D350001A7105AA0692082218001A730AAA9A607E
:10D3600000F0D6FC002802D052E018711873002398
:10D370001F0023732371019BBA331B78BB4246D92C
:10D3800007237B43019AD218BB321278022A31D18B
:10D39000002506AE337BAB4236D907207843AB007D
:10D3A0000293019BAA001818089BBB3099580BF0F8
:10D3B0009FFC00281BD0B368AA009A58237BA16861
:10D3C0009B005A50237B01332373337B5A1E9542B3
:10D3D00008D01049B2685B189B009B5803930399CF
:10D3E000029BD15006AA137B013B13730CE001355D
:10D3F000EDB2CEE701992279CB182168BB339200B8
:10D4000053502379013323717B1CDFB2B3E7002033
:10D4100013B0F0BDFFFFFF3FF0B59DB01F006B469E
:10D4200005001A70581C0622229E02AC0CF0DCF992
:10D43000002F07D03B8823807B886380BB88A38034
:10D44000FB8806E032232380DB186380F533A78056
:10D45000FF33E3800CAB04A9049314AB8B602F0063
:10D460000023B9370B710B733B78002B17D10120C8
:10D470003B78022708A903405A000B78BB4304AF4E
:10D480004F601343002E10D0B27983430240134300
:10D490000B7033880B8173884B81B38811E02800AF
:10D4A000FFF746FF0028E2D029E02A003232127846
:10D4B0008343024013430B70AB8D0B81EB8D4B818B
:10D4C0002B8E220068468B810BF067F8030000204A
:10D4D000834214D00630082B11D005D80130042B1C
:10D4E0000DD0834208D109E00520112B07D0054A51
:10D4F000934203D0102B01D00B2000E004201DB07C
:10D50000F0BDC04602320000F0B50A7804009BB0BE
:10D510000D000220012A42D04B88032A04D1A03BEF
:10D5200010009BB21F4A03E00320203B1E4A9BB21F
:10D53000934234D8AA881D4B03209A422FD80AABB5
:10D54000009312AB02936A460023260013711373F3
:10D55000B8363378002B05D069462000FFF7E8FE87
:10D5600000281CD104AF1822002138000CF05AF911
:10D570002B7838003B7033783B726B46FB606B88CE
:10D580003B82AB887B820AF0F2FF02000320002A74
:10D5900005D101211000583423780B4323701BB0B0
:10D5A000F0BDC046603F0000E03F0000FF3F0000CC
:10D5B00000487047FFFF0000F0B597B0059303687F
:10D5C00007AD1B680491039311002B00060091C95D
:10D5D00091C30024D36821000C220CA8EB602C61BD
:10D5E0000CF020F921000B4B10940F9311AB1C7021
:10D5F0001A1901345170102CFAD100225A82019369
:10D60000059B2A00009304990CAB3000039CA047B3
:10D6100017B0F0BD87890200FC3070B5046C0500BE
:10D62000002C0DD124200CF0A2F8064B446083613D
:10D63000054B8460C46004614461C4610360286474
:10D64000286C70BDD89E0200C09F0200FC3070B5EF
:10D65000C56B0600002D16D134200CF088F80400AC
:10D66000342229000CF0DEF8084BA5606360084BFB
:10D6700065612361074B2562E361074BE562A362A5
:10D68000064BF4632360F06B70BDC046089F020038
:10D69000F89E0200689F0200789F0200889F0200A7
:10D6A0007FB503791548002B26D0154D154C2B78E6
:10D6B0002000002B20D102AE30000BF056F90028DC
:10D6C00014D17388592B11D13378B288D91F01290D
:10D6D00002D800920C4A01E000920C4A202120005E
:10D6E00007F09EFB01232B70200005E02022084953
:10D6F00020000CF0DEF8F7E704B070BDA1A902002D
:10D70000A9280020AA280020BBA90200D8A902004D
:10D71000FDA9020010B50400024B08C00BF0A2F9ED
:10D72000200010BD789F020010B50400024B08C015
:10D730000BF098F9200010BD189F020010B50400EE
:10D74000024B08C00BF08EF9200010BD089F0200AC
:10D7500010B50400024B08C00BF084F9200010BD86
:10D76000F89E020010B50400024B08C00BF07AF9D5
:10D77000200010BDE89E020010B50400024B08C056
:10D780000BF070F9200010BD289F020010B50400B6
:10D79000024B08C00BF066F9200010BDD89E0200B5
:10D7A00010B50400024B08C00BF05CF9200010BD5E
:10D7B0002C9E020010B50400024B08C00BF052F979
:10D7C000200010BD1C9E020010B50400024B08C0D2
:10D7D0000BF048F9200010BD0C9E020010B50400AB
:10D7E000024B08C00BF03EF9200010BD3C9E020029
:10D7F00010B50400024B08C00BF034F9200010BD36
:10D80000689F0200FC3070B5046C0500002C0DD13F
:10D8100024200BF0ACFF064B44608361054B846011
:10D82000C46004614461C46103602864286C70BDF5
:10D83000D89E0200C09F0200104B10B50833036051
:10D840000F4B0400C36080230E4A5B00C250C01817
:10D85000FCF726FF20000C4BB830E360FFF7BEFF5B
:10D860002000AC30FFF79CFF2000A030FFF7A2FFA4
:10D8700020006C30FFF7A8FF200010BDEC9F0200D5
:10D88000809D0200D0A002004C9E0200454AF0B5E7
:10D890000600C260A022444B163608330360010024
:10D8A000002342820400320085B003718360037458
:10D8B000838235311370013200259142FAD18027DD
:10D8C00080222000D201BF001100F57737842B00A1
:10D8D0000095383000F0B6FA23002100403303935E
:10D8E0001A002B005F311370013200258A42FAD1F1
:10D8F000039B2200DD77230060331F80FC2364320A
:10D90000117820000B401370230068331D70274BE3
:10D910002900E36625670C2278300BF083FF230093
:10D92000270088331D60224B0837FB6784372900A6
:10D930000C2238000BF076FF1E4B1F4AFB602300C1
:10D94000A0333D611A601D4A5D60DA601C4A1D61AA
:10D950009A61DD6130000BF099F903980BF096F9AC
:10D96000184B601CE3602300C4331D705D709D7014
:10D97000FF3002F0EDF88C235B00E55023001933F3
:10D98000FF335D618023104A5B00E25023000122D7
:10D990002000FE3352425A86023B9D63DD631D64C4
:10D9A00005B0F0BD4C9E0200EC9F02000C9E0200F0
:10D9B00037870200298702001C9E02002C9E02006D
:10D9C0003C9E0200809D0200D0A0020070B5074C72
:10D9D0002368002B07D1A02040000BF0C8FE0500F3
:10D9E000FFF754FF2560206870BDC0463426002034
:10D9F00070B50C220D00002104000BF013FF002372
:10DA00002361024B25602000E36070BD6D81020040
:10DA100070B500250400264B05710360254B457148
:10DA20008360254BC5604361244B85610362244BB1
:10DA30004562C362234B05638363C5632900443099
:10DA4000FFF7D6FF200029005830FFF7D1FF200054
:10DA500029006C30FFF7CCFF1B4B22002360230012
:10DA6000F832803320C39342FCD126001D00E936F2
:10DA7000FF3628000822002108350BF0D3FEAE4205
:10DA8000F7D18E22330000209200A11801C300229A
:10DA90009942FBD18E239B00E2540C490C4B611838
:10DAA000E3181A8002339942FBD1200070BDC046B2
:10DAB000389F0200E89E0200F89E0200089F0200C4
:10DAC000189F0200289F0200509D02006202000081
:10DAD0003A02000070B500200C00FFF777FF0368E2
